:100000000C942A000C9447000C9447000C94470071
:100010000C9447000C9447000C9447000C94470044
:100020000C9447000C9447000C9447000C94470034
:100030000C9447000C9447000C9447000C94470024
:100040000C9447000C9447000C9447000C94470014
:100050000C94470011241FBECFE5D4E0DEBFCDBF16
:1000600010E0A0E6B0E0ECEBF0E002C005900D92ED
:10007000A036B107D9F710E0A0E6B0E001C01D92AC
:10008000A036B107E1F70E9449000C945C000C9483
:1000900000008FEF84BB81BB84E485BB55E528EC71
:1000A00030E04AEA52BB88EE93E0F9013197F1F76C
:0C00B0000197D9F742BBF6CFF894FFCFC0
:00000001FF
